:100000000C942E000C94CD060C94CD060C94CD06C9
:100010000C94CD060C94CD060C94CD060C94CD0614
:100020000C94CD060C94CD060C94CD060C94CD0604
:100030000C94CD060C94CD060C94CD060C94CD06F4
:100040000C94CD060C94CD060C94CD060C94CD06E4
:100050000C94CD0600600077000DA80011241FBE8F
:10006000CFE5D8E0DEBFCDBFE4E5F0E040E017C06B
:10007000B591A59135912591059107FD0CC09591FC
:100080008591EF01F92FE82F05900D92A217B30784
:10009000D9F7FE0104C01D92A217B307E1F7EB35B3
:1000A000F40731F70E9458000C949606F894FFCF9D
:1000B000CF93DF93CDB7DEB760970FB6F894DEBF6E
:1000C0000FBECDBF87E390E027E330E0F901208148
:1000D0002E7FFC0120838AE390E02AE330E0F901DF
:1000E00020812E7FFC01208388E390E028E330E02C
:1000F000F90120812160FC0120838BE390E02BE358
:1001000030E0F90120812160FC01208387E390E049
:1001100027E330E0F90120812C60FC0120831A8262
:1001200019820E94A50389819A810E94B40486E302
:1001300090E0FC018081882F90E081709927892BC5
:1001400009F097C080E090E0A8E4B2E48B839C8340
:10015000AD83BE8320E030E04AE753E46B817C81CD
:100160008D819E810E94C606DC01CB018F8398871A
:10017000A987BA8720E030E040E85FE36F817885A7
:1001800089859A850E94BC0688232CF481E090E042
:100190009C878B873FC020E03FEF4FE757E46F819C
:1001A000788589859A850E94C10618164CF520E04D
:1001B00030E040E251E46B817C818D819E810E9420
:1001C000C606DC01CB01BC01CD010E94C905DC01E2
:1001D000CB019C878B870FC089E190E09E878D873C
:1001E0008D859E850197F1F79E878D878B859C85F0
:1001F00001979C878B878B859C85892B69F714C019
:100200006F81788589859A850E94C905DC01CB01BB
:100210009C878B878B859C85988B8F878F8598890A
:100220000197F1F7988B8F8786E390E0FC0180813E
:10023000882F90E081709927892BD9F489819A8140
:1002400001969A83898389819A818436910514F075
:100250001A82198289819A810E94B404000086E37F
:1002600090E0FC018081882F90E081709927892B94
:10027000B1F389819A81059794F088E390E028E3AF
:1002800030E0F90120812460FC01208388E390E0C4
:1002900028E330E0F90120812860FC01208389E314
:1002A00090E0FC018081882F90E081709927892B54
:1002B00009F03DCF1A82198288E390E028E330E00C
:1002C000F90120812B7FFC01208388E390E028E363
:1002D00030E0F9012081277FFC01208389819A8108
:0602E0000E94B40424CFCB
:1002E600CF93DF93CDB7DEB76D970FB6F894DEBF29
:1002F6000FBECDBF8D8F85E390E02D8DFC01208351
:1003060082E390E022E330E0F90120812F7BFC01BB
:10031600208382E390E022E330E0F9012081206827
:10032600FC01208380E090E0A0E0B0E489839A831A
:10033600AB83BC8320E030E04AE753E469817A81ED
:100346008B819C810E94C606DC01CB018B8B9C8B2A
:10035600AD8BBE8B20E030E040E85FE36B897C89A3
:100366008D899E890E94BC0688232CF481E090E04A
:10037600988F8F8B3FC020E03FEF4FE757E46B89A4
:100386007C898D899E890E94C10618164CF520E04D
:1003960030E040E251E469817A818B819C810E9440
:1003A600C606DC01CB01BC01CD010E94C905DC01FA
:1003B600CB01988F8F8B0FC089E190E09A8F898F40
:1003C600898D9A8D0197F1F79A8F898F8F89988DEC
:1003D6000197988F8F8B8F89988D892B69F714C019
:1003E6006B897C898D899E890E94C905DC01CB01B8
:1003F600988F8F8B8F89988D9C8F8B8F8B8D9C8DF3
:100406000197F1F79C8F8B8F82E390E022E330E037
:10041600F90120812F77FC01208380E090E0A0E0A5
:10042600B0E48D839E83AF83B88720E030E04AE74F
:1004360053E46D817E818F8198850E94C606DC011A
:10044600CB0189879A87AB87BC8720E030E040E8FC
:100456005FE369857A858B859C850E94BC06882327
:100466002CF481E090E09E878D873FC020E03FEF2F
:100476004FE757E469857A858B859C850E94C1067E
:1004860018164CF520E030E040E251E46D817E81A3
:100496008F8198850E94C606DC01CB01BC01CD0187
:1004A6000E94C905DC01CB019E878D870FC089E1BB
:1004B60090E0988B8F878F8598890197F1F7988BB5
:1004C6008F878D859E8501979E878D878D859E85D5
:1004D600892B69F714C069857A858B859C850E946E
:1004E600C905DC01CB019E878D878D859E859A8BFC
:1004F600898B89899A890197F1F79A8B898B0000F4
:100506006D960FB6F894DEBF0FBECDBFDF91CF91CB
:02051600089546
:10051800CF93DF93CDB7DEB76D970FB6F894DEBFF4
:100528000FBECDBF8D8F85E390E02D8DFC0120831C
:1005380082E390E022E330E0F90120812064FC01AD
:10054800208382E390E022E330E0F90120812068F3
:10055800FC01208380E090E0A0E0B0E489839A83E6
:10056800AB83BC8320E030E04AE753E469817A81B9
:100578008B819C810E94C606DC01CB018B8B9C8BF6
:10058800AD8BBE8B20E030E040E85FE36B897C896F
:100598008D899E890E94BC0688232CF481E090E016
:1005A800988F8F8B3FC020E03FEF4FE757E46B8970
:1005B8007C898D899E890E94C10618164CF520E019
:1005C80030E040E251E469817A818B819C810E940C
:1005D800C606DC01CB01BC01CD010E94C905DC01C6
:1005E800CB01988F8F8B0FC089E190E09A8F898F0C
:1005F800898D9A8D0197F1F79A8F898F8F89988DB8
:100608000197988F8F8B8F89988D892B69F714C0E4
:100618006B897C898D899E890E94C905DC01CB0183
:10062800988F8F8B8F89988D9C8F8B8F8B8D9C8DBE
:100638000197F1F79C8F8B8F82E390E022E330E003
:10064800F90120812F77FC01208380E090E0A0E071
:10065800B0E48D839E83AF83B88720E030E04AE71B
:1006680053E46D817E818F8198850E94C606DC01E6
:10067800CB0189879A87AB87BC8720E030E040E8C8
:100688005FE369857A858B859C850E94BC068823F3
:100698002CF481E090E09E878D873FC020E03FEFFB
:1006A8004FE757E469857A858B859C850E94C1064A
:1006B80018164CF520E030E040E251E46D817E816F
:1006C8008F8198850E94C606DC01CB01BC01CD0153
:1006D8000E94C905DC01CB019E878D870FC089E187
:1006E80090E0988B8F878F8598890197F1F7988B81
:1006F8008F878D859E8501979E878D878D859E85A1
:10070800892B69F714C069857A858B859C850E9439
:10071800C905DC01CB019E878D878D859E859A8BC7
:10072800898B89899A890197F1F79A8B898B0000BF
:100738006D960FB6F894DEBF0FBECDBFDF91CF9197
:02074800089512
:10074A00CF93DF93CDB7DEB76C970FB6F894DEBFC1
:10075A000FBECDBF84E390E02FEFFC01208381E33D
:10076A0090E021E330E0F9012081206CFC01208334
:10077A0080E090E0A8E4B2E489839A83AB83BC83E7
:10078A0020E030E04AE753E469817A818B819C81D9
:10079A000E94C606DC01CB018B8B9C8BAD8BBE8B7A
:1007AA0020E030E040E85FE36B897C898D899E898F
:1007BA000E94BC0688232CF481E090E0988F8F8BEE
:1007CA003FC020E03FEF4FE757E46B897C898D8972
:1007DA009E890E94C10618164CF520E030E040E2DE
:1007EA0051E469817A818B819C810E94C606DC0171
:1007FA00CB01BC01CD010E94C905DC01CB01988F58
:10080A008F8B0FC089E190E09A8F898F898D9A8D9D
:10081A000197F1F79A8F898F8F89988D0197988F11
:10082A008F8B8F89988D892B69F714C06B897C8986
:10083A008D899E890E94C905DC01CB01988F8F8B17
:10084A008F89988D9C8F8B8F8B8D9C8D0197F1F75B
:10085A009C8F8B8F88E30E9473018CE00E94730146
:10086A0081E00E94730180E090E0A0EAB0E48D8309
:10087A009E83AF83B88720E030E04AE753E46D8176
:10088A007E818F8198850E94C606DC01CB0189870B
:10089A009A87AB87BC8720E030E040E85FE3698550
:1008AA007A858B859C850E94BC0688232CF481E07E
:1008BA0090E09E878D873FC020E03FEF4FE757E4E7
:1008CA0069857A858B859C850E94C10618164CF528
:1008DA0020E030E040E251E46D817E818F8198858D
:1008EA000E94C606DC01CB01BC01CD010E94C905EC
:1008FA00DC01CB019E878D870FC089E190E0988B40
:10090A008F878F8598890197F1F7988B8F878D85C7
:10091A009E8501979E878D878D859E85892B69F790
:10092A0014C069857A858B859C850E94C905DC017E
:10093A00CB019E878D878D859E859A8B898B898928
:10094A009A890197F1F79A8B898B00006C960FB6FA
:0E095A00F894DEBF0FBECDBFDF91CF910895A0
:10096800CF93DF93CDB7DEB760970FB6F894DEBFAD
:100978000FBECDBF988B8F8781E00E94730180E006
:1009880090E0A0EAB0E489839A83AB83BC8320E03B
:1009980030E04AE753E469817A818B819C810E9427
:1009A800C606DC01CB018D839E83AF83B88720E028
:1009B80030E040E85FE36D817E818F8198850E94F9
:1009C800BC0688232CF481E090E09A8789873FC091
:1009D80020E03FEF4FE757E46D817E818F81988556
:1009E8000E94C10618164CF520E030E040E251E4C0
:1009F80069817A818B819C810E94C606DC01CB01CA
:100A0800BC01CD010E94C905DC01CB019A87898709
:100A18000FC089E190E09C878B878B859C85019727
:100A2800F1F79C878B8789859A8501979A878987AB
:100A380089859A85892B69F714C06D817E818F819C
:100A480098850E94C905DC01CB019A878987898529
:100A58009A859E878D878D859E850197F1F79E875C
:100A68008D8780E690E00E943E0680EC0E9473012C
:100A78008FE690E00E943E068F8598892AE030E054
:100A8800B9010E945D06CB01805D0E948C028F85B2
:100A980098892AE030E0B9010E945D06805D0E94D5
:100AA8008C02000060960FB6F894DEBF0FBECDBF73
:060AB800DF91CF910895CB
:100ABE000FC00E94A80638F00E94AF0620F09523C2
:100ACE0011F00C94B6060C94CA0611240C94A206CE
:100ADE000E941C0670F3959FC1F3950F50E0551FB1
:100AEE00629FF001729FBB27F00DB11D639FAA2775
:100AFE00F00DB11DAA1F649F6627B00DA11D661FC4
:100B0E00829F2227B00DA11D621F739FB00DA11DE4
:100B1E00621F839FA00D611D221F749F3327A00D9E
:100B2E00611D231F849F600D211D822F762F6A2F3A
:100B3E0011249F5750409AF0F1F088234AF0EE0F9F
:100B4E00FF1FBB1F661F771F881F91505040A9F7CC
:100B5E009E3F510580F00C94B6060C94A2065F3FA2
:100B6E00E4F3983ED4F3869577956795B795F79508
:100B7E00E7959F5FC1F7FE2B880F911D9695879580
:040B8E0097F9089536
:100B92000E94240688F09F5798F0B92F9927B751E1
:100BA200B0F0E1F0660F771F881F991F1AF0BA950F
:100BB200C9F714C0B13091F00E94A106B1E00895C6
:100BC2000C94A106672F782F8827B85F39F0B93FB8
:100BD200CCF3869577956795B395D9F73EF49095C2
:0E0BE2008095709561957F4F8F4F9F4F0895BE
:100BF000990F0008550FAA0BE0E8FEEF161617062E
:100C0000E807F907C0F012161306E407F50798F095
:100C1000621B730B840B950B39F40A2661F0232BAE
:100C2000242B252B21F408950A2609F4A140A6952A
:080C30008FEF811D811D089565
:100C380057FD9058440F551F59F05F3F71F0479585
:100C4800880F97FB991F61F09F3F79F0879508956A
:100C5800121613061406551FF2CF4695F1DF08C089
:100C6800161617061806991FF1CF869571056105A6
:040C7800089408953F
:100C7C00CF93DF9300D0CDB7DEB79A8389830BC0B7
:100C8C0089819A819C012F5F3F4F3A832983FC0114
:100C9C0080810E948C0289819A81FC018081882349
:0E0CAC0079F700000F900F90DF91CF9108951F
:100CBA0097FB072E16F4009407D077FD09D00E94FF
:100CCA00710607FC05D03EF4909581959F4F0895D3
:080CDA00709561957F4F0895AC
:100CE200AA1BBB1B51E107C0AA1FBB1FA617B70750
:100CF20010F0A61BB70B881F991F5A95A9F780956C
:080D02009095BC01CD0108959C
:100D0A00092E0394000C11F4882352F0BB0F40F40F
:100D1A00BF2B11F460FF04C06F5F7F4F8F4F9F4F4F
:020D2A0008952A
:100D2C00EC010E94D2060E94D106CE010E94D3068D
:060D3C00CE010E94CF066B
:0E0D4200E894BB2766277727CB0197F9089521
:0E0D500000240A9416161706180609060895C0
:0E0D5E0000240A9412161306140605060895C2
:0C0D6C0097F99F6780E870E060E0089550
:0A0D78000E94F80508F481E00895D8
:0A0D82000E94F80508F48FEF0895B1
:080D8C000E945F050C9485062E
:060D94009FEF80EC0895C2
:040D9A000C940000B5
:040D9E000E94560059
:020DA2000895B2
:020DA4000895B0
:020DA6000895AE
:100DA8004F626A65637420436F756E7465720043A1
:070DB8006F756E743A200014
:00000001FF
